:1000000031C04AC049C048C047C046C045C044C0CE
:1000100043C042C041C040C03FC03EC04AC43CC0D3
:100020003BC0C9C539C0616C726561647920737465
:100030006F72656400747578677261706869637364
:100040002E6F7267007665723A20646463702D309B
:100050002E342E380073657474696E672073746F64
:100060007265640011241FBECFE5D4E0DEBFCDBFB2
:1000700010E0A0E6B0E0E4E1FAE102C005900D92E4
:10008000A038B107D9F711E0A0E8B0E001C01D9297
:10009000A030B107E1F7C9C1B3CFAC0120E030E037
:1000A000E0ECF3E005C0CF010197F1F72F5F3F4F80
:1000B00024173507C1F70895A8E0B0E0E1E6F0E0C5
:1000C0004ACCDC018B01F42EE22E40E086EFC82EF4
:1000D0008FEFD82E3EE225C02A2FCD016AE070E0D6
:1000E0001DDCDB01E42FFF27E7FDF095BE016F5F0C
:1000F0007F4FE60FF71FAC9DC001AD9D900DBC9DDD
:10010000900D1124280F205D20834F5FF41649F4D1
:10011000842F992787FD9095680F791FFB01308305
:100120004F5FAA30B10514F04730B4F2E42FFF2737
:10013000E7FDF0959E012F5F3F4FE20FF31F8A2FDF
:10014000805D80835F2D515080E308C04F5FE42FB6
:10015000FF27E7FDF095E20FF31F80834517B4F307
:10016000EE2069F0242F332727FD3095852F99271E
:1001700087FD90950296821793070CF4EE2454178E
:10018000A1F4EF2DFF27E7FDF095DE011196EA0FB0
:10019000FB1F8EE280834F2D4F5F842F992787FDB1
:1001A0009095A80FB91F80E38C93EE2049F04F5F24
:1001B000E42FFF27E7FDF095EC0FFD1F80E2818320
:1001C000D8019E012F5F3F4F09C0E42FFF27E7FDB5
:1001D000F095E20FF31F80818D93415047FFF5CFDB
:1001E000EA2FE01BFF27E7FDF095E00FF11F1082DB
:1001F000E8E02896CCCBAA2797FDA095BA2FBC01A2
:10020000CD01D1D82AE939E94CEC52E4F7D634D9FA
:10021000882777FD8095982FC6D82BE734E14CEEE0
:1002200051E40DD829D9DC01CB01089564E170E0D7
:1002300075DBCB01E0DF089581E0ADD2A0E0B0E056
:10024000CBDB802D8331A9F4A4E0B0E0CDDBAF019E
:100250002091AB003091AC00A2E0B0E0C5DB809112
:10026000A9009091AA00E817F90719F4421753075B
:10027000C9F085E590E076D283E1A0E0B0E0082EF9
:10028000B8DB8091A9009091AA00A2E0B0E00C0137
:10029000BCDB8091AB009091AC00A4E0B0E00C011D
:1002A000B4DB10C080918000863048F085E490E097
:1002B00059D261E080E0A8D285E390E002C086E2F6
:1002C00090E050D288EC90E0E8DE08958BEA90E070
:1002D000CED3882371F08091AB009091AC008D3D1E
:1002E000910534F18CED90E09093AC008093AB00DD
:1002F00012C089EA90E0E6D3882381F08091A900BA
:100300009091AA008B3F91059CF08AEF90E090932A
:10031000AA008093A90081E090E0089598D38823F3
:1003200019F480E090E0089587DF82E090E008957E
:1003300081E090E0089585E890E00BD4882309F4EB
:1003400073C080918500893679F5809186008D3360
:10035000F9F4809187008823D9F087E890E090DA5B
:100360009093AA008093A9008B3F910534F08AEF07
:1003700090E09093AA008093A9008091A9009091A9
:10038000AA0097FF14C01092AA001092A9000FC0F3
:1003900020E042E065E870E08091A5009091A60021
:1003A0008BDE63E670E036C0833721F445DF80E6FC
:1003B00090E035C08537A9F5809186008D33F9F43A
:1003C000809187008823D9F087E890E059DA9093EC
:1003D000AC008093AB008D3D910534F08CED90E046
:1003E0009093AC008093AB008091AB009091AC00F7
:1003F00097FFDDCF1092AC001092AB00D8CF20E079
:1004000041E065E870E08091A7009091A80054DE7B
:1004100065E670E085E890E05FDA85E890E0BAD3C1
:10042000089587E690E0B6D30895CAE4D4E0DEBF2D
:10043000CDBF1092A6001092A5001092A8001092B5
:10044000A700F8D28CE0B2D1FDD28FE090E090937B
:10045000AA008093A90082E390E09093AC0080937F
:10046000AB00A0E0B0E0B8DA802D833171F4A4E0F5
:10047000B0E0BADAF093AC00E093AB00A2E0B0E0F9
:10048000B3DAF093AA00E093A90040E061E083E0D2
:1004900044D378948BE690E07DD3BDD180E0F4D155
:1004A000AA2797FDA095BA2FBC01CD017CD726E6DF
:1004B00036E646E250E4A2D524E13EEA43EA50E4BF
:1004C000BED62AE939E949E15FE371D5D5D7709302
:1004D000A6006093A5006091A9007091AA008827EA
:1004E00077FD8095982F5FD724E13EEA43E251E4FF
:1004F00085D520E030E040E05FE380D526E636E6B3
:1005000046E250E49CD6B8D7709382006093810095
:1005100080E0B1D10091A5001091A60081E0B4D196
:100520007C01C80183DEE816F9061CF460E070E087
:100530001DC0E81AF90AB701882777FD8095982F22
:1005400032D72AE939E94CEC52E479D626E636E688
:1005500046E250E453D52AE939E945E351E44ED562
:100560002AE939E949E15FE322D586D77093A800EB
:100570006093A7008091AB009091AC003CDE8C01B1
:100580008091A5009091A60051DE080F191F1093CD
:10059000840000938300B80181E06DD181E0FBD03D
:1005A00021E041E0BE016F5F7F4F8091A7009091F5
:1005B000A80082DDCE010196E2D08EE690E0DFD089
:1005C00021E041E0BE016F5F7F4F8091AB009091D1
:1005D000AC0072DD8BE5BBD0CE010196D0D08DE5AD
:1005E000B6D03FD1882319F481E790E0C8D061E00C
:1005F00080E00AD120E042E0BE016F5F7F4F809132
:10060000A5009091A60058DDCE010196B8D084E7F0
:1006100090E0B5D020E042E0BE016F5F7F4F809157
:10062000A9009091AA0048DD8BE591D0CE010196FA
:10063000A6D08DE58CD015D1882319F081E790E004
:100640009ED079DE43DE882341F484E690E025DD08
:100650001092800070DE3ADE12C0809180008C30F3
:1006600038F08AE090E019DD66DE88E290E009C0AB
:100670008F5F8093800084E690E00FDD5CDE86E98A
:1006800090E00BDD0BCFAC0120E030E0E0ECF3E0DC
:1006900005C0CF010197F1F72F5F3F4F24173507B2
:1006A000C1F7089587FF02C0C79A01C0C79899276C
:1006B00086FF02C0C29A01C0C29885FF02C0C19ADB
:1006C00001C0C19884FF02C0C09A0895C0980895DF
:1006D000C49A84E08A95F1F7C49808950F931F9304
:1006E000182F062FBF9ABA9AB99AB89ADBDF00235F
:1006F00011F0C69A01C0C698EBDF812F992783FFBE
:1007000002C0C79A01C0C79882FF02C0C29A01C046
:10071000C29881FF02C0C19A01C0C19810FF02C0F7
:10072000C09A01C0C098002311F0C69A01C0C698B3
:10073000CFDF1F910F9108959AE09A95F1F78823E2
:1007400019F082E090E09FDF80E090E008951F9331
:10075000182F80E0F1DF61E0812FC0DF80E0ECDF67
:100760001F910895CF93DF93EC0101C0F0DFFE01EC
:10077000219684918823D1F7DF91CF910895CF936B
:10078000DF93EC0102C0E3DF219688818823D9F74B
:10079000DF91CF9108951F93182F80E0CDDF60E0A7
:1007A000812F9CDF81E0C8DF1F9108951F93182FD0
:1007B000BF9ABA9AB99AB89ABE9ABC9A8CE090E05D
:1007C00062DF80E36FDF84DF82E090E05CDF80E364
:1007D00069DF7EDF82E090E056DF80E363DF78DF71
:1007E00082E090E050DF80E25DDF72DF88E2D3DFFD
:1007F00088E0D1DF81E0CFDF86E0CDDF812FCBDF66
:1008000081E09ADF1F910895662311F4805801C09A
:100810008054C1DF08951092BA001092B90081E0AF
:1008200094E09093BC008093BB001092B6001092AD
:10083000B5001092B8001092B7008091B200877096
:10084000806C87B98DEB86B9369A8091AD00909116
:10085000AE000497D0F308958091B0009091B1005C
:1008600008958091AF0020E030E0882311F421E06A
:1008700030E0C9010895E82FFF27EE0FFF1FEB546A
:10088000FF4F718360830895E82FFF27EE0FFF1F4E
:10089000E754FF4F2091AD003091AE00408151816F
:1008A0008091AD009091AE008217930799F7CA012D
:1008B00008951F920F920FB60F9211242F933F931A
:1008C0004F935F936F937F938F939F93AF93BF9358
:1008D000EF93FF9324B12093B40095B19093B300AC
:1008E0008091B2008F5F8093B2008091B20082301D
:1008F00010F01092B2008091B2008770806C87B9BE
:10090000E091B200FF27892F9927982F8827332756
:10091000822B932BEE0FFF1FE754FF4F91838083B1
:100920008091B9009091BA008152934054F084E1D3
:1009300090E073D084E190E09093B1008093B00098
:1009400052C08091B200813009F44DC08091AF0057
:100950002091B5003091B6008091B9009091BA0015
:10096000281B390B121613061CF01092AF000DC095
:1009700081E08093AF002091B7003091B800809162
:10098000BB009091BC00281B390B8091AD00909169
:10099000AE00039738F0C9010196039718F420E0E0
:1009A00030E00CC0223031051CF021E030E006C000
:1009B0008FEF2F3F380714F42FEF3FEF8091B000F7
:1009C0009091B100820F931F9093B1008093B0007B
:1009D00097FF04C01092B1001092B0008091B00057
:1009E0009091B1001AD08091AD009091AE00019627
:1009F0009093AE008093AD00FF91EF91BF91AF91C6
:100A00009F918F917F916F915F914F913F912F9126
:100A10000F900FBE0F901F90189582BB25B3237FB8
:100A20008070937036E0959587953A95E1F7282B7D
:100A300025BB08958FEF81BB12BAA39AAB98A29AF7
:100A4000AA980895BD98BB98C59AC39A0895C2986C
:100A500084E68150F1F786B3992723E09695879530
:100A60002A95E1F780959095817090700895FC012A
:100A7000C79AC29AC19AC09884E68150F1F7B59995
:100A800006C08081918101969183808315C0C79AA9
:100A9000C29AC198C09A84E68150F1F7B5990FC007
:100AA000808191811816190654F4019791838083EF
:100AB000992314F41182108281E090E0089580E07F
:100AC00090E00895FC01C79AC298C19AC09A84E642
:100AD0008150F1F7B59906C080819181019691838B
:100AE000808315C0C798C29AC19AC09A84E6815083
:100AF000F1F7B5990FC0808191811816190654F449
:100B0000019791838083992314F41182108281E0EC
:100B100090E0089580E090E00895282F4111AC9A6C
:100B20001092BF001092BE001092BD0080E090E0D5
:100B3000E0ECF0E01192019680329105D9F785EC56
:100B400086BF822F880F90E0611191E0892B82B9D6
:100B500008959C018091BF008130C9F08091BE0052
:100B60008823A9F0E091BE00FF27E152FF4F80816A
:100B7000882369F41092FF004FE150E060EE70E0CE
:100B8000C901B5D61092BE0081E090E0089580E0E2
:100B900090E00895BC018091BF008230E1F34FE105
:100BA00050E080EC90E0A3D61092DF001092BD00E0
:100BB00080E090E008951F920F920FB60F921124DB
:100BC0008F93EF93FF9381B1887F883909F444C0F4
:100BD0008939A0F4883749F1893740F4883629F1FA
:100BE000803719F1803609F075C01FC08838A1F12F
:100BF000803909F1803809F06DC01DC0883B09F4C7
:100C000045C0893B40F4883AE1F1803BD1F1803A1C
:100C100009F060C05CC0883C09F457C0883F09F403
:100C200061C0803C09F056C050C081E08093BF0095
:100C30001092BE0059C08091BE008F3188F4E091BF
:100C4000BE00FF2783B1E052FF4F80838091BE003A
:100C50008F5F8093BE0048C08091BE008F3120F02E
:100C60001092FF0080E20AC0E091BE00FF2783B12E
:100C7000E052FF4F80838091BE008F5F8093BE0063
:100C800031C082E08093BF001092BD008091BD0012
:100C90008F31A8F4E091BD00FF27E054FF4F808121
:100CA000882369F0E091BD00FF27E054FF4F808169
:100CB00083B98091BD008F5F8093BD0015C013B8CC
:100CC0001092BD001092BF000DC01092BD00109296
:100CD000BF000AC01092BE001092BD001092BF006B
:100CE00085ED03C085E801C085EC86BFFF91EF91DB
:100CF0008F910F900FBE0F901F901895A0E0B0E05D
:100D0000E3E8F6E022C6EC016B014A0198819230DB
:100D100008F41DC1FB018081823008F477C0943053
:100D200009F476C0843009F471C0823009F4CEC071
:100D3000923009F46BC06A807B80FB01A280B38093
:100D4000EC80FD800E811F81248135814681578191
:100D5000F301EA19FB09CF01F7FDE3C080970CF41A
:100D600062C0A614B7040CF0D7C020E030E040E029
:100D700050E09981F6018181981709F4C0C0992348
:100D800009F4B6C02E193F09400B510B57FDCEC0D8
:100D9000F4011182738262822483358346835783F0
:100DA000F401248135814681578179018A01DA0174
:100DB000C9010197A109B1098F5F9F4FAF4FBF4391
:100DC000F0F4F40162817381A8019701220F331FAF
:100DD000441F551F6150704079018A01DA01C90131
:100DE0000197A109B1098F5F9F4FAF4FBF4360F3D8
:100DF000F40173836283248335834683578383E0BE
:100E0000F401808357FD48C0E401A1C0E6019FC002
:100E1000843009F09CC099818181981709F497C0AA
:100E2000C7E7D0E094C0A614B704BCF460E070E05B
:100E3000DA01C90181709070A070B0705695479525
:100E400037952795282B392B4A2B5B2B6F5F7F4FCC
:100E5000E617F70769F7A60EB71E6A147B040CF0B5
:100E600088CF60E070E0F501E619F709D801C70105
:100E700081709070A070B07016950795F794E79404
:100E8000E82AF92A0A2B1B2B6F5F7F4FE617F7071B
:100E900069F7660E771E6DCFDA01C901B695A79581
:100EA000979587952170307040705070282B392BA2
:100EB0004A2B5B2BF401248335834683578382813D
:100EC0009381019693838283E40141C0923009F0BB
:100ED0003EC0DA01FE0188E001900D928150E1F7F9
:100EE0008981F60191818923F4018183E4012FC076
:100EF000E21AF30A040B150BA801970147CFF4017E
:100F00009183738262822E0D3F1D401F511F2483E7
:100F100035834683578373CF3501EE24FF24870141
:100F200028CF882799278E1B9F0B18CF81E0F401CB
:100F300081837382628250954095309521953F4F11
:100F40004F4F5F4F248335834683578329CFCE018C
:100F5000EEE0CDB7DEB715C5A0E2B0E0E1EBF7E01B
:100F6000FCC469837A838B839C832D833E834F8368
:100F7000588789E0E82EF12CEC0EFD1EB701CE015A
:100F80000196D9D38E010F5E1F4FB801CE01059691
:100F9000D2D38A8991E089278A8BAE01475E5F4F61
:100FA000B801C701ABDEB5D2E6E0A096F2C4A0E27C
:100FB000B0E0ECEDF7E0D1C469837A838B839C8346
:100FC0002D833E834F83588799E0E92EF12CEC0E58
:100FD000FD1EB701CE010196AED38E010F5E1F4FED
:100FE000B801CE010596A7D3AE01475E5F4FB801A9
:100FF000C70184DE8ED2E6E0A096CBC4A0E2B0E0CA
:10100000E3E0F8E09EC469837A838B839C832D831D
:101010003E834F8358878E01075F1F4FB801CE0173
:10102000019689D331E1E32EF12CEC0EFD1EB701C0
:10103000CE01059680D38985823008F4AAC09989AB
:10104000923008F49CC0843009F4A1C0943009F4B3
:1010500094C0823009F49DC0923009F490C0ED84B0
:10106000FE840F8518898D899E89AF89B88D2224C9
:1010700033242101662477244301AA24BB2465017B
:1010800060E270E00BC0880F991FAA1FBB1F169566
:101090000795F794E79461507040A1F1E0FE19C004
:1010A000280E391E4A1E5B1E20E030E040E050E072
:1010B000281639064A065B0620F421E030E040E0BD
:1010C00050E02A0D3B1D4C1D5D1D620E731E841EDB
:1010D000951EAA0CBB1CCC1CDD1CB7FFD4CF21E095
:1010E00030E040E050E0A22AB32AC42AD52A880F73
:1010F000991FAA1FBB1F16950795F794E794615097
:10110000704061F62B853C858B899C89280F391F9F
:101110002E5F3F4F3C8F2B8F40E09A858A89981332
:1011200041E04A8F97FC6FC030E0631630E07306F1
:1011300030E0830630E49306C8F58B8D9C8D0DC09E
:10114000220C331C441C551C30E0631630E073063F
:1011500030E0830630E4930638F50197660C771C7F
:10116000881C991C57FEECCF21E030E040E050E0B5
:10117000622A732A842A952AE3CF823091F020E0F4
:101180009A858A89981321E02A8BB70153C092303F
:1011900041F020E09A858A89981321E02A87B801D6
:1011A00049C067E770E046C09C8F8B8FD401C301B4
:1011B0008F779070A070B07080349105A105B10553
:1011C00051F06D8E7E8E8F8E98A283E0898FBE0146
:1011D000675E7F4F2FC067FCF4CF211431044104B8
:1011E000510479F380E490E0A0E0B0E0680E791E4D
:1011F0008A1E9B1E20E83FEF4FEF5FEF62227322B3
:1012000084229522DECFC901019660FE0CC056945F
:1012100047943794279420E030E040E050E8222AB9
:10122000332A442A552A96948794779467949C8FFE
:101230008B8F7ACFCB016DD1E2E1A0969EC3A8E15E
:10124000B0E0E4E2F9E083C369837A838B839C8313
:101250002D833E834F835887B9E08B2E912C8C0EC3
:101260009D1EB401CE01019666D28E010F5E1F4F06
:10127000B801CE0105965FD22985223008F461C0FD
:101280003989323008F470C08A859A8989278A871B
:10129000243009F458C0223009F455C0343009F420
:1012A0005BC0323009F454C06B857C858B899C8986
:1012B000681B790B7C876B872D853E854F85588908
:1012C000ED88FE880F89188D2E153F0540075107C0
:1012D00040F4220F331F441F551F615070407C871C
:1012E0006B8780E090E0A0E0B0E4AA24BB24650115
:1012F0006FE170E02E153F054007510740F0A82A26
:10130000B92ACA2ADB2A2E193F09400B510BB69580
:10131000A79597958795220F331F441F551F61503E
:10132000704041F7D601C5018F779070A070B07002
:1013300080349105A105B105C9F0AD86BE86CF8682
:10134000D88AB4012BC03217E1F767E770E026C0F6
:1013500084E08987B40122C01D861E861F86188AF4
:101360001C861B86B4011AC0B80118C0A7FCE5CFC3
:10137000211531054105510501F380E490E0A0E01D
:10138000B0E0A80EB91ECA1EDB1E80E89FEFAFEFCB
:10139000BFEFA822B922CA22DB22CFCFCB01B9D01E
:1013A000ECE06896F0C2A8E0B0E0E8EDF9E0D8C261
:1013B0009B01AC0183E08983DA01C9018827B7FD6D
:1013C00083959927AA27BB278A83211531054105D3
:1013D000510531F482E08983CE0101969AD049C04B
:1013E0006EE170E07C836B838823D1F1203010E0C4
:1013F000310710E0410710E85107B9F18827992714
:10140000DC01821B930BA40BB50B8D839E83AF83F2
:10141000B8872D813E814F815885203080E0380784
:1014200080E0480780E45807B8F66B817C81DA01D8
:10143000C901880F991FAA1FBB1F615070409C01F2
:10144000AD01803010E0910710E0A10710E4B10772
:1014500070F37C836B838D839E83AF83B887BCCF0F
:101460002D833E834F835887D4CF60E070E080E0C7
:101470009FECE3E0289690C2ACE0B0E0E1E4FAE053
:1014800070C269837A838B839C83BE016B5F7F4FBD
:10149000CE01019650D18D81823061F0823050F0C2
:1014A000843069F48E81882359F52FEF3FEF4FEF99
:1014B0005FE72AC020E030E040E050E025C02F8107
:1014C000388537FDF7CF2F31310564F78EE190E095
:1014D000821B930B29853A854B855C8504C0569504
:1014E0004795379527958A95D2F78E81882361F0A5
:1014F00050954095309521953F4F4F4F5F4F04C019
:1015000020E030E040E050E8CA01B901E2E02C966A
:1015100044C2A0E0B0E0EEE8FAE017C220E030E01C
:1015200040E050E0FC01E480F58006811781818174
:10153000C82FDD278081823008F44FC0843009F441
:101540007CC0823009F443C0E114F10401051105A7
:10155000F1F1628173818FEF623878070CF044C03B
:10156000E2E8FFEFE61BF70BEA31F1050CF46BC084
:10157000EE24FF24870180E090E0A0E0B0E080341A
:101580009105A105B10509F48FC08FE390E0A0E0BB
:10159000B0E0E80EF91E0A1F1B1FD801C70167E063
:1015A000B695A795979587956A95D1F7AF77B0705F
:1015B00060E070E0E0E0EE16E0E0FE06E0E00E073E
:1015C000E0E41E0708F494C061E070E091C080E0A0
:1015D00090E0A0E0B0E060E08BC0D801C701A0615E
:1015E000AF77B0706FEF84C06038710534F5FB01E0
:1015F000E158FF4FD801C7018F779070A070B0708D
:1016000080349105A105B10509F45FC08FE390E036
:10161000A0E0B0E0E80EF91E0A1F1B1F17FD60C016
:10162000D801C70127E0B695A795979587952A9584
:10163000D1F7AF77B0706E2F5BC080E090E0A0E094
:10164000B0E06FEF55C0570168010E2E04C0D6946C
:10165000C794B794A7940A94D2F7662477244301D9
:1016600081E090E0A0E0B0E004C0880F991FAA1FBD
:10167000BB1FEA95D2F70197A109B109E822F92227
:101680000A231B23E114F10401051105C1F48601AD
:101690007501E628F72808291929D801C7018F778D
:1016A0009070A070B0706BCFE7FE77CF60E470E011
:1016B00080E090E0E60EF71E081F191F6ECF71E064
:1016C000672E712C812C912CE2CFE7FEA7CF80E40E
:1016D00090E0A0E0B0E0E80EF91E0A1F1B1F9ECFAD
:1016E00016950795F794E794FB01E058FF4F98CFC4
:1016F000282F392F9A2F9F77842F8078482F492BB6
:10170000962F979599279795842F8F77482F492B58
:101710006695852F8078582F562BDE01A795AA272E
:10172000A795852F8F77582F5A2BCA01B901EEE064
:10173000CDB7DEB726C1CF93DF93FC01DB0120815B
:1017400031819281492F4F7750E0991F9927991F36
:101750008381682F660F692BE62FFF27881F882754
:10176000881FED018983662309F044C021153105E6
:101770004105510509F46AC0BF016E577040FD0173
:1017800073836283220F331F441F551F220F331FA1
:10179000441F551F220F331F441F551F220F331F95
:1017A000441F551F220F331F441F551F220F331F85
:1017B000441F551F220F331F441F551F83E08C9376
:1017C0002030F0E03F07F0E04F07F0E45F07C0F59E
:1017D000CB01220F331F441F551F0197203060E0BB
:1017E000360760E0460760E4560798F3ED019B83F7
:1017F0008A8326C06F3F69F1EF57F040ED01FB830C
:10180000EA8383E08C93220F331F441F551F220F5E
:10181000331F441F551F220F331F441F551F220F14
:10182000331F441F551F220F331F441F551F220F04
:10183000331F441F551F220F331F441F551F506471
:10184000FD01248335834683578317C082E08C9340
:1018500014C0211531054105510519F484E08C931C
:101860000CC044FF08C081E08C93ED012C833D83C4
:101870004E835F8302C01C92F8CFDF91CF91089511
:10188000FC0188279927E89421912223E9F020324E
:10189000D9F32930C9F32A30B9F32C30A9F32D300C
:1018A00099F3263789F32B3219F02D3221F46894FD
:1018B0002191222349F020333CF02A332CF4205389
:1018C00025D0820F911DF4CF8115910521F01EF4D2
:1018D0008095909501960895FB01DC010D90002004
:1018E000E9F7119701900D920020E1F70895FB01AF
:1018F000DC014150504048F001900D920020C9F7A2
:1019000001C01D9241505040E0F708957AE0979F42
:10191000902D879F802D910D1124089597FB092EFE
:1019200007260AD077FD04D043D006D000201AF451
:10193000709561957F4F0895F6F7909581959F4F2B
:1019400008952F923F924F925F926F927F928F9263
:101950009F92AF92BF92CF92DF92EF92FF920F933E
:101960001F93CF93DF93CDB7DEB7CA1BDB0B0FB648
:10197000F894DEBF0FBECDBF09942A883988488805
:101980005F846E847D848C849B84AA84B984C8849B
:10199000DF80EE80FD800C811B81AA81B981CE0F92
:1019A000D11D0FB6F894DEBF0FBECDBFED01089577
:1019B000AA1BBB1B51E107C0AA1FBB1FA617B70775
:1019C00010F0A61BB70B881F991F5A95A9F7809591
:1019D0009095BC01CD010895E199FECFBFBBAEBB90
:1019E000E09A11960DB20895F7DFE02DF5DFF02DA6
:1019F0000895E199FECFBFBBAEBB0DBA11960FB6ED
:101A0000F894E29AE19A0FBE0895F3DF012CF1DF1A
:041A10001124089500
:101A14006F6B0041005600657272006F6E005620B5
:101A2400003C2D00412000000000000000000000E8
:00000001FF
